{
  "_format": "hh-sol-artifact-1",
  "contractName": "BidContract",
  "sourceName": "contracts/BidContract.sol",
  "abi": [
    {
      "inputs": [],
      "stateMutability": "nonpayable",
      "type": "constructor"
    },
    {
      "anonymous": false,
      "inputs": [
        {
          "indexed": false,
          "internalType": "uint256",
          "name": "id",
          "type": "uint256"
        },
        {
          "indexed": false,
          "internalType": "address",
          "name": "owner",
          "type": "address"
        },
        {
          "indexed": false,
          "internalType": "bytes32",
          "name": "listingURI",
          "type": "bytes32"
        },
        {
          "indexed": false,
          "internalType": "address",
          "name": "maxBidder",
          "type": "address"
        },
        {
          "indexed": false,
          "internalType": "uint256",
          "name": "maxBid",
          "type": "uint256"
        }
      ],
      "name": "BidClosed",
      "type": "event"
    },
    {
      "anonymous": false,
      "inputs": [
        {
          "indexed": false,
          "internalType": "uint256",
          "name": "id",
          "type": "uint256"
        },
        {
          "indexed": false,
          "internalType": "address",
          "name": "owner",
          "type": "address"
        },
        {
          "indexed": false,
          "internalType": "bytes32",
          "name": "listingURI",
          "type": "bytes32"
        }
      ],
      "name": "BidOpened",
      "type": "event"
    },
    {
      "anonymous": false,
      "inputs": [
        {
          "indexed": false,
          "internalType": "address",
          "name": "bidder",
          "type": "address"
        },
        {
          "indexed": false,
          "internalType": "bytes32",
          "name": "listingURI",
          "type": "bytes32"
        }
      ],
      "name": "BidSubmitted",
      "type": "event"
    },
    {
      "inputs": [
        {
          "internalType": "uint256",
          "name": "_id",
          "type": "uint256"
        }
      ],
      "name": "abortBid",
      "outputs": [],
      "stateMutability": "payable",
      "type": "function"
    },
    {
      "inputs": [
        {
          "internalType": "uint256",
          "name": "_id",
          "type": "uint256"
        }
      ],
      "name": "closeBid",
      "outputs": [
        {
          "internalType": "address",
          "name": "",
          "type": "address"
        }
      ],
      "stateMutability": "nonpayable",
      "type": "function"
    },
    {
      "inputs": [
        {
          "internalType": "bytes32",
          "name": "_listingURI",
          "type": "bytes32"
        }
      ],
      "name": "createBid",
      "outputs": [],
      "stateMutability": "nonpayable",
      "type": "function"
    },
    {
      "inputs": [
        {
          "internalType": "uint256",
          "name": "_id",
          "type": "uint256"
        },
        {
          "internalType": "bool",
          "name": "finalize",
          "type": "bool"
        }
      ],
      "name": "finalizeTransfer",
      "outputs": [],
      "stateMutability": "payable",
      "type": "function"
    },
    {
      "inputs": [
        {
          "internalType": "uint256",
          "name": "_id",
          "type": "uint256"
        }
      ],
      "name": "getActiveMaxBid",
      "outputs": [
        {
          "internalType": "uint256",
          "name": "",
          "type": "uint256"
        }
      ],
      "stateMutability": "view",
      "type": "function"
    },
    {
      "inputs": [
        {
          "internalType": "uint256",
          "name": "_id",
          "type": "uint256"
        }
      ],
      "name": "placeBid",
      "outputs": [],
      "stateMutability": "payable",
      "type": "function"
    }
  ],
  "bytecode": "0x608060405234801561001057600080fd5b50600080819055506113ae806100276000396000f3fe6080604052600436106100555760003560e01c8063419f8f321461005a57806371be98c7146100835780638a8fb97b146100c05780639979ef45146100dc578063d229ca3f146100f8578063f6a8981014610114575b600080fd5b34801561006657600080fd5b50610081600480360381019061007c9190610c07565b610151565b005b34801561008f57600080fd5b506100aa60048036038101906100a59190610c30565b610301565b6040516100b79190610f38565b60405180910390f35b6100da60048036038101906100d59190610c30565b610409565b005b6100f660048036038101906100f19190610c30565b6106a0565b005b610112600480360381019061010d9190610c59565b610823565b005b34801561012057600080fd5b5061013b60048036038101906101369190610c30565b6109f4565b6040516101489190610dfd565b60405180910390f35b6040518060c001604052803373ffffffffffffffffffffffffffffffffffffffff1681526020018281526020013373ffffffffffffffffffffffffffffffffffffffff1681526020016000815260200160011515815260200160001515815250600160008054815260200190815260200160002060008201518160000160006101000a81548173ffffffffffffffffffffffffffffffffffffffff021916908373ffffffffffffffffffffffffffffffffffffffff1602179055506020820151816001015560408201518160020160006101000a81548173ffffffffffffffffffffffffffffffffffffffff021916908373ffffffffffffffffffffffffffffffffffffffff1602179055506060820151816003015560808201518160040160006101000a81548160ff02191690831515021790555060a08201518160040160016101000a81548160ff0219169083151502179055509050507f71eb4def416b993cafef25e57f5246b4929c60b2b0234d57881f341ffa4fa44f60005433836040516102df93929190610f53565b60405180910390a16000808154809291906102f990611040565b919050555050565b6000806001600084815260200190815260200160002090503373ffffffffffffffffffffffffffffffffffffffff168160000160009054906101000a900473ffffffffffffffffffffffffffffffffffffffff1673ffffffffffffffffffffffffffffffffffffffff16146103ab576040517f08c379a00000000000000000000000000000000000000000000000000000000081526004016103a290610e98565b60405180910390fd5b8060040160009054906101000a900460ff166103fc576040517f08c379a00000000000000000000000000000000000000000000000000000000081526004016103f390610e18565b60405180910390fd5b8060030154915050919050565b60006001600083815260200190815260200160002090508060040160009054906101000a900460ff16610471576040517f08c379a000000000000000000000000000000000000000000000000000000000815260040161046890610e38565b60405180910390fd5b3373ffffffffffffffffffffffffffffffffffffffff168160000160009054906101000a900473ffffffffffffffffffffffffffffffffffffffff1673ffffffffffffffffffffffffffffffffffffffff1614610503576040517f08c379a00000000000000000000000000000000000000000000000000000000081526004016104fa90610ed8565b60405180910390fd5b6000816003015411156105865760008160020160009054906101000a900473ffffffffffffffffffffffffffffffffffffffff1690508073ffffffffffffffffffffffffffffffffffffffff166108fc83600301549081150290604051600060405180830381858888f19350505050158015610583573d6000803e3d6000fd5b50505b60008160040160006101000a81548160ff02191690831515021790555060018160040160016101000a81548160ff021916908315150217905550338160020160006101000a81548173ffffffffffffffffffffffffffffffffffffffff021916908373ffffffffffffffffffffffffffffffffffffffff160217905550600081600301819055507fdfe4bc95faedcff7662432f27da93faa8b099873a931fdb9f6aea8d3d48fecfa828260000160009054906101000a900473ffffffffffffffffffffffffffffffffffffffff1683600101548460020160009054906101000a900473ffffffffffffffffffffffffffffffffffffffff168560030154604051610694959493929190610f8a565b60405180910390a15050565b60006001600083815260200190815260200160002090508060040160009054906101000a900460ff16610708576040517f08c379a00000000000000000000000000000000000000000000000000000000081526004016106ff90610f18565b60405180910390fd5b6000341161074b576040517f08c379a000000000000000000000000000000000000000000000000000000000815260040161074290610e58565b60405180910390fd5b806003015434111561081f5760008160020160009054906101000a900473ffffffffffffffffffffffffffffffffffffffff169050600082600301549050338360020160006101000a81548173ffffffffffffffffffffffffffffffffffffffff021916908373ffffffffffffffffffffffffffffffffffffffff1602179055503483600301819055508173ffffffffffffffffffffffffffffffffffffffff166108fc829081150290604051600060405180830381858888f1935050505015801561081b573d6000803e3d6000fd5b5050505b5050565b60006001600084815260200190815260200160002090508060040160009054906101000a900460ff161561088c576040517f08c379a000000000000000000000000000000000000000000000000000000000815260040161088390610e78565b60405180910390fd5b8060040160019054906101000a900460ff16156108de576040517f08c379a00000000000000000000000000000000000000000000000000000000081526004016108d590610eb8565b60405180910390fd5b3373ffffffffffffffffffffffffffffffffffffffff168160020160009054906101000a900473ffffffffffffffffffffffffffffffffffffffff1673ffffffffffffffffffffffffffffffffffffffff1614610970576040517f08c379a000000000000000000000000000000000000000000000000000000000815260040161096790610ef8565b60405180910390fd5b600033905082156109a3578160000160009054906101000a900473ffffffffffffffffffffffffffffffffffffffff1690505b8073ffffffffffffffffffffffffffffffffffffffff166108fc83600301549081150290604051600060405180830381858888f193505050501580156109ed573d6000803e3d6000fd5b5050505050565b6000806001600084815260200190815260200160002090508060040160009054906101000a900460ff16610a5d576040517f08c379a0000000000000000000000000000000000000000000000000000000008152600401610a5490610e38565b60405180910390fd5b3373ffffffffffffffffffffffffffffffffffffffff168160000160009054906101000a900473ffffffffffffffffffffffffffffffffffffffff1673ffffffffffffffffffffffffffffffffffffffff1614610aef576040517f08c379a0000000000000000000000000000000000000000000000000000000008152600401610ae690610ed8565b60405180910390fd5b60008160040160006101000a81548160ff0219169083151502179055507fdfe4bc95faedcff7662432f27da93faa8b099873a931fdb9f6aea8d3d48fecfa838260000160009054906101000a900473ffffffffffffffffffffffffffffffffffffffff1683600101548460020160009054906101000a900473ffffffffffffffffffffffffffffffffffffffff168560030154604051610b93959493929190610f8a565b60405180910390a18060020160009054906101000a900473ffffffffffffffffffffffffffffffffffffffff16915050919050565b600081359050610bd781611333565b92915050565b600081359050610bec8161134a565b92915050565b600081359050610c0181611361565b92915050565b600060208284031215610c1957600080fd5b6000610c2784828501610bdd565b91505092915050565b600060208284031215610c4257600080fd5b6000610c5084828501610bf2565b91505092915050565b60008060408385031215610c6c57600080fd5b6000610c7a85828601610bf2565b9250506020610c8b85828601610bc8565b9150509250929050565b610c9e81610fee565b82525050565b610cad8161100c565b82525050565b6000610cc0602b83610fdd565b9150610ccb826110b8565b604082019050919050565b6000610ce3602c83610fdd565b9150610cee82611107565b604082019050919050565b6000610d06601f83610fdd565b9150610d1182611156565b602082019050919050565b6000610d29602983610fdd565b9150610d348261117f565b604082019050919050565b6000610d4c603583610fdd565b9150610d57826111ce565b604082019050919050565b6000610d6f603283610fdd565b9150610d7a8261121d565b604082019050919050565b6000610d92602083610fdd565b9150610d9d8261126c565b602082019050919050565b6000610db5602983610fdd565b9150610dc082611295565b604082019050919050565b6000610dd8602e83610fdd565b9150610de3826112e4565b604082019050919050565b610df781611036565b82525050565b6000602082019050610e126000830184610c95565b92915050565b60006020820190508181036000830152610e3181610cb3565b9050919050565b60006020820190508181036000830152610e5181610cd6565b9050919050565b60006020820190508181036000830152610e7181610cf9565b9050919050565b60006020820190508181036000830152610e9181610d1c565b9050919050565b60006020820190508181036000830152610eb181610d3f565b9050919050565b60006020820190508181036000830152610ed181610d62565b9050919050565b60006020820190508181036000830152610ef181610d85565b9050919050565b60006020820190508181036000830152610f1181610da8565b9050919050565b60006020820190508181036000830152610f3181610dcb565b9050919050565b6000602082019050610f4d6000830184610dee565b92915050565b6000606082019050610f686000830186610dee565b610f756020830185610c95565b610f826040830184610ca4565b949350505050565b600060a082019050610f9f6000830188610dee565b610fac6020830187610c95565b610fb96040830186610ca4565b610fc66060830185610c95565b610fd36080830184610dee565b9695505050505050565b600082825260208201905092915050565b6000610ff982611016565b9050919050565b60008115159050919050565b6000819050919050565b600073ffffffffffffffffffffffffffffffffffffffff82169050919050565b6000819050919050565b600061104b82611036565b91507fffffffffffffffffffffffffffffffffffffffffffffffffffffffffffffffff82141561107e5761107d611089565b5b600182019050919050565b7f4e487b7100000000000000000000000000000000000000000000000000000000600052601160045260246000fd5b7f54686973206c697374696e67206973206569746865722065787069726564206f60008201527f7220636f6d706c65746564000000000000000000000000000000000000000000602082015250565b7f42696464696e672068617320616c72656164792065787069726564206f6e207460008201527f68697320636f6e74726163740000000000000000000000000000000000000000602082015250565b7f54686520626964206d7573742062652067726561746572207468616e20302100600082015250565b7f42696464696e67206973207374696c6c20616374697665206f6e20746869732060008201527f636f6e7472616374210000000000000000000000000000000000000000000000602082015250565b7f4f6e6c7920746865206f776e6572206f6620746865206c697374696e6720636160008201527f6e20736565207468652068696768657374206269640000000000000000000000602082015250565b7f546865206f776e6572206f66207468697320636f6e747261637420686173207660008201527f6f69646564207468652062696464696e672e0000000000000000000000000000602082015250565b7f596f7520617265206e6f7420746865206f776e65722e204e6963652074727921600082015250565b7f596f7520617265206e6f74207468652068696768657374206269646465722e2060008201527f4e69636520747279210000000000000000000000000000000000000000000000602082015250565b7f5468697320636f6e7472616374206973206e6f206c6f6e6765722074616b696e60008201527f6720626964732c20736f72727921000000000000000000000000000000000000602082015250565b61133c81611000565b811461134757600080fd5b50565b6113538161100c565b811461135e57600080fd5b50565b61136a81611036565b811461137557600080fd5b5056fea264697066735822122082000234fccb518e6b5c6206154ace9ba63f1f8f3d396fb869be8cdcaacea92b64736f6c63430008040033",
  "linkReferences": {},
  "deployedLinkReferences": {}
}